{
  "address": "0xBA81FB1FddB2c281A617129842B7B9cA09217ae3",
  "abi": [
    {
      "inputs": [
        {
          "internalType": "address",
          "name": "_eventListener",
          "type": "address"
        },
        {
          "internalType": "address",
          "name": "_wFLR",
          "type": "address"
        },
        {
          "internalType": "address",
          "name": "_ERC",
          "type": "address"
        }
      ],
      "stateMutability": "nonpayable",
      "type": "constructor"
    },
    {
      "anonymous": false,
      "inputs": [
        {
          "indexed": true,
          "internalType": "address",
          "name": "sender",
          "type": "address"
        },
        {
          "indexed": false,
          "internalType": "uint256",
          "name": "value",
          "type": "uint256"
        }
      ],
      "name": "ReceiveERC",
      "type": "event"
    },
    {
      "anonymous": false,
      "inputs": [
        {
          "indexed": true,
          "internalType": "address",
          "name": "sender",
          "type": "address"
        },
        {
          "indexed": false,
          "internalType": "uint256",
          "name": "value",
          "type": "uint256"
        }
      ],
      "name": "ReceiveETH",
      "type": "event"
    },
    {
      "anonymous": false,
      "inputs": [
        {
          "indexed": true,
          "internalType": "address",
          "name": "sender",
          "type": "address"
        },
        {
          "indexed": false,
          "internalType": "uint256",
          "name": "value",
          "type": "uint256"
        }
      ],
      "name": "ReceiveWFLR",
      "type": "event"
    },
    {
      "anonymous": false,
      "inputs": [
        {
          "indexed": true,
          "internalType": "address",
          "name": "receiver",
          "type": "address"
        },
        {
          "indexed": false,
          "internalType": "uint256",
          "name": "value",
          "type": "uint256"
        }
      ],
      "name": "ReleaseERC",
      "type": "event"
    },
    {
      "anonymous": false,
      "inputs": [
        {
          "indexed": true,
          "internalType": "address",
          "name": "receiver",
          "type": "address"
        },
        {
          "indexed": false,
          "internalType": "uint256",
          "name": "value",
          "type": "uint256"
        }
      ],
      "name": "ReleaseETH",
      "type": "event"
    },
    {
      "anonymous": false,
      "inputs": [
        {
          "indexed": true,
          "internalType": "address",
          "name": "receiver",
          "type": "address"
        },
        {
          "indexed": false,
          "internalType": "uint256",
          "name": "value",
          "type": "uint256"
        }
      ],
      "name": "ReleaseWFLR",
      "type": "event"
    },
    {
      "anonymous": false,
      "inputs": [
        {
          "indexed": true,
          "internalType": "bytes32",
          "name": "role",
          "type": "bytes32"
        },
        {
          "indexed": true,
          "internalType": "bytes32",
          "name": "previousAdminRole",
          "type": "bytes32"
        },
        {
          "indexed": true,
          "internalType": "bytes32",
          "name": "newAdminRole",
          "type": "bytes32"
        }
      ],
      "name": "RoleAdminChanged",
      "type": "event"
    },
    {
      "anonymous": false,
      "inputs": [
        {
          "indexed": true,
          "internalType": "bytes32",
          "name": "role",
          "type": "bytes32"
        },
        {
          "indexed": true,
          "internalType": "address",
          "name": "account",
          "type": "address"
        },
        {
          "indexed": true,
          "internalType": "address",
          "name": "sender",
          "type": "address"
        }
      ],
      "name": "RoleGranted",
      "type": "event"
    },
    {
      "anonymous": false,
      "inputs": [
        {
          "indexed": true,
          "internalType": "bytes32",
          "name": "role",
          "type": "bytes32"
        },
        {
          "indexed": true,
          "internalType": "address",
          "name": "account",
          "type": "address"
        },
        {
          "indexed": true,
          "internalType": "address",
          "name": "sender",
          "type": "address"
        }
      ],
      "name": "RoleRevoked",
      "type": "event"
    },
    {
      "inputs": [],
      "name": "DEFAULT_ADMIN_ROLE",
      "outputs": [
        {
          "internalType": "bytes32",
          "name": "",
          "type": "bytes32"
        }
      ],
      "stateMutability": "view",
      "type": "function"
    },
    {
      "inputs": [],
      "name": "ERCToken",
      "outputs": [
        {
          "internalType": "contract ERC20Token",
          "name": "",
          "type": "address"
        }
      ],
      "stateMutability": "view",
      "type": "function"
    },
    {
      "inputs": [],
      "name": "EVENT_LISTENER_ROLE",
      "outputs": [
        {
          "internalType": "bytes32",
          "name": "",
          "type": "bytes32"
        }
      ],
      "stateMutability": "view",
      "type": "function"
    },
    {
      "inputs": [
        {
          "internalType": "uint256",
          "name": "_amount",
          "type": "uint256"
        }
      ],
      "name": "bridgeERC",
      "outputs": [],
      "stateMutability": "nonpayable",
      "type": "function"
    },
    {
      "inputs": [
        {
          "internalType": "uint256",
          "name": "_amount",
          "type": "uint256"
        }
      ],
      "name": "bridgeETH",
      "outputs": [],
      "stateMutability": "payable",
      "type": "function"
    },
    {
      "inputs": [
        {
          "internalType": "uint256",
          "name": "_amount",
          "type": "uint256"
        }
      ],
      "name": "bridgeWFLR",
      "outputs": [],
      "stateMutability": "nonpayable",
      "type": "function"
    },
    {
      "inputs": [
        {
          "internalType": "bytes32",
          "name": "role",
          "type": "bytes32"
        }
      ],
      "name": "getRoleAdmin",
      "outputs": [
        {
          "internalType": "bytes32",
          "name": "",
          "type": "bytes32"
        }
      ],
      "stateMutability": "view",
      "type": "function"
    },
    {
      "inputs": [
        {
          "internalType": "bytes32",
          "name": "role",
          "type": "bytes32"
        },
        {
          "internalType": "address",
          "name": "account",
          "type": "address"
        }
      ],
      "name": "grantRole",
      "outputs": [],
      "stateMutability": "nonpayable",
      "type": "function"
    },
    {
      "inputs": [
        {
          "internalType": "bytes32",
          "name": "role",
          "type": "bytes32"
        },
        {
          "internalType": "address",
          "name": "account",
          "type": "address"
        }
      ],
      "name": "hasRole",
      "outputs": [
        {
          "internalType": "bool",
          "name": "",
          "type": "bool"
        }
      ],
      "stateMutability": "view",
      "type": "function"
    },
    {
      "inputs": [
        {
          "internalType": "address",
          "name": "_receiver",
          "type": "address"
        },
        {
          "internalType": "uint256",
          "name": "_amount",
          "type": "uint256"
        }
      ],
      "name": "releaseERC",
      "outputs": [],
      "stateMutability": "nonpayable",
      "type": "function"
    },
    {
      "inputs": [
        {
          "internalType": "address",
          "name": "_receiver",
          "type": "address"
        },
        {
          "internalType": "uint256",
          "name": "_amount",
          "type": "uint256"
        }
      ],
      "name": "releaseETH",
      "outputs": [],
      "stateMutability": "nonpayable",
      "type": "function"
    },
    {
      "inputs": [
        {
          "internalType": "address",
          "name": "_receiver",
          "type": "address"
        },
        {
          "internalType": "uint256",
          "name": "_amount",
          "type": "uint256"
        }
      ],
      "name": "releaseWFLR",
      "outputs": [],
      "stateMutability": "nonpayable",
      "type": "function"
    },
    {
      "inputs": [
        {
          "internalType": "bytes32",
          "name": "role",
          "type": "bytes32"
        },
        {
          "internalType": "address",
          "name": "account",
          "type": "address"
        }
      ],
      "name": "renounceRole",
      "outputs": [],
      "stateMutability": "nonpayable",
      "type": "function"
    },
    {
      "inputs": [
        {
          "internalType": "bytes32",
          "name": "role",
          "type": "bytes32"
        },
        {
          "internalType": "address",
          "name": "account",
          "type": "address"
        }
      ],
      "name": "revokeRole",
      "outputs": [],
      "stateMutability": "nonpayable",
      "type": "function"
    },
    {
      "inputs": [
        {
          "internalType": "bytes4",
          "name": "interfaceId",
          "type": "bytes4"
        }
      ],
      "name": "supportsInterface",
      "outputs": [
        {
          "internalType": "bool",
          "name": "",
          "type": "bool"
        }
      ],
      "stateMutability": "view",
      "type": "function"
    },
    {
      "inputs": [],
      "name": "wFLRToken",
      "outputs": [
        {
          "internalType": "contract ERC20Token",
          "name": "",
          "type": "address"
        }
      ],
      "stateMutability": "view",
      "type": "function"
    }
  ],
  "transactionHash": "0xe3d10b0490a00e71686e4d048e8f81ff7156f434b54343e6ab7a2c73a9abe501",
  "args": [
    "0x4ff7186D1a23589E2Bd07c97615E4A3021A7609C",
    "0xc5618D6509344EED2d7e65269EeE488c13474032",
    "0xccB0f0a5783643C81AD77C8c3C203cA344A7Ad7E"
  ],
  "numDeployments": 1,
  "solcInputHash": "02818a3a70d1ea62a7292facdd5c1dbf",
  "bytecode": "0x60806040523480156200001157600080fd5b506040516200110c3803806200110c83398101604081905262000034916200015e565b62000041600033620000a0565b6200006d7ffe0e734c2495add73547265918fbd6f9cbabae1a8bc4e69b0e2a6a9986aa076e84620000a0565b600180546001600160a01b039384166001600160a01b0319918216179091556002805492909316911617905550620001a8565b6000828152602081815260408083206001600160a01b038516845290915290205460ff166200013d576000828152602081815260408083206001600160a01b03851684529091529020805460ff19166001179055620000fc3390565b6001600160a01b0316816001600160a01b0316837f2f8788117e7eff1d82e926ec794901d17c78024a50270940304540a733656f0d60405160405180910390a45b5050565b80516001600160a01b03811681146200015957600080fd5b919050565b6000806000606084860312156200017457600080fd5b6200017f8462000141565b92506200018f6020850162000141565b91506200019f6040850162000141565b90509250925092565b610f5480620001b86000396000f3fe6080604052600436106100f35760003560e01c80634c68e5511161008a578063cc0e2a3911610059578063cc0e2a39146102ba578063d547741f146102dc578063e8e71f0c146102fc578063e93efadb1461031c57600080fd5b80634c68e5511461024557806391d148541461026557806399650a4714610285578063a217fddf146102a557600080fd5b806330c8a488116100c657806330c8a488146101c557806336568abe146101e5578063444ff77f1461020557806344c917eb1461022557600080fd5b806301ffc9a7146100f85780630d9b8f3b1461012d578063248a9ca3146101655780632f2ff15d146101a3575b600080fd5b34801561010457600080fd5b50610118610113366004610cd8565b61032f565b60405190151581526020015b60405180910390f35b34801561013957600080fd5b5060015461014d906001600160a01b031681565b6040516001600160a01b039091168152602001610124565b34801561017157600080fd5b50610195610180366004610d02565b60009081526020819052604090206001015490565b604051908152602001610124565b3480156101af57600080fd5b506101c36101be366004610d37565b610366565b005b3480156101d157600080fd5b5060025461014d906001600160a01b031681565b3480156101f157600080fd5b506101c3610200366004610d37565b610390565b34801561021157600080fd5b506101c3610220366004610d02565b610413565b34801561023157600080fd5b506101c3610240366004610d63565b610526565b34801561025157600080fd5b506101c3610260366004610d63565b6105ec565b34801561027157600080fd5b50610118610280366004610d37565b6106a5565b34801561029157600080fd5b506101c36102a0366004610d02565b6106ce565b3480156102b157600080fd5b50610195600081565b3480156102c657600080fd5b50610195600080516020610eff83398151915281565b3480156102e857600080fd5b506101c36102f7366004610d37565b6107da565b34801561030857600080fd5b506101c3610317366004610d63565b6107ff565b6101c361032a366004610d02565b610953565b60006001600160e01b03198216637965db0b60e01b148061036057506301ffc9a760e01b6001600160e01b03198316145b92915050565b600082815260208190526040902060010154610381816109d4565b61038b83836109e1565b505050565b6001600160a01b03811633146104055760405162461bcd60e51b815260206004820152602f60248201527f416363657373436f6e74726f6c3a2063616e206f6e6c792072656e6f756e636560448201526e103937b632b9903337b91039b2b63360891b60648201526084015b60405180910390fd5b61040f8282610a65565b5050565b6002546040516323b872dd60e01b8152336004820152306024820152604481018390526001600160a01b03909116906323b872dd906064016020604051808303816000875af115801561046a573d6000803e3d6000fd5b505050506040513d601f19601f8201168201806040525081019061048e9190610d8d565b50600254604051630852cd8d60e31b8152600481018390526001600160a01b03909116906342966c6890602401600060405180830381600087803b1580156104d557600080fd5b505af11580156104e9573d6000803e3d6000fd5b50506040518381523392507f64d907bc71c34bc05b4663e5bfbbc4c262c831577f194b8e71984a251ab9337991506020015b60405180910390a250565b600080516020610eff83398151915261053e816109d4565b6002546040516340c10f1960e01b81526001600160a01b03858116600483015260248201859052909116906340c10f1990604401600060405180830381600087803b15801561058c57600080fd5b505af11580156105a0573d6000803e3d6000fd5b50505050826001600160a01b03167f3b593dd002dad2615562388a918de5536dab5d17eeb82c60ed3e62958cb1cfe3836040516105df91815260200190565b60405180910390a2505050565b600080516020610eff833981519152610604816109d4565b6001546040516340c10f1960e01b81526001600160a01b03858116600483015260248201859052909116906340c10f1990604401600060405180830381600087803b15801561065257600080fd5b505af1158015610666573d6000803e3d6000fd5b50505050826001600160a01b03167f069087a4330e2e733f7c628897334145c8eacfde875a87a4078cdc75352cf385836040516105df91815260200190565b6000918252602082815260408084206001600160a01b0393909316845291905290205460ff1690565b6001546040516323b872dd60e01b8152336004820152306024820152604481018390526001600160a01b03909116906323b872dd906064016020604051808303816000875af1158015610725573d6000803e3d6000fd5b505050506040513d601f19601f820116820180604052508101906107499190610d8d565b50600154604051630852cd8d60e31b8152600481018390526001600160a01b03909116906342966c6890602401600060405180830381600087803b15801561079057600080fd5b505af11580156107a4573d6000803e3d6000fd5b50506040518381523392507f1bfc8fed13f38bdf2b5859ccbadc66eb5e03d8a7e5da905092aebcf704cd6c01915060200161051b565b6000828152602081905260409020600101546107f5816109d4565b61038b8383610a65565b600080516020610eff833981519152610817816109d4565b814710156108675760405162461bcd60e51b815260206004820152601f60248201527f4554484272696467653a20696e73756666696369656e742062616c616e63650060448201526064016103fc565b6000836001600160a01b03168360405160006040518083038185875af1925050503d80600081146108b4576040519150601f19603f3d011682016040523d82523d6000602084013e6108b9565b606091505b505090508061090a5760405162461bcd60e51b815260206004820152601d60248201527f4554484272696467653a206661696c656420746f2073656e642045544800000060448201526064016103fc565b836001600160a01b03167f32bcd4a3d9b8529d11f16d3cd03e60c4a144d8d2e29efadbc8d963b0218be2d08460405161094591815260200190565b60405180910390a250505050565b8034146109a25760405162461bcd60e51b815260206004820152601960248201527f4554484272696467653a20696e76616c696420616d6f756e740000000000000060448201526064016103fc565b60405181815233907f830d2d700a97af574b186c80d40429385d24241565b08a7c559ba283a964d9b19060200161051b565b6109de8133610aca565b50565b6109eb82826106a5565b61040f576000828152602081815260408083206001600160a01b03851684529091529020805460ff19166001179055610a213390565b6001600160a01b0316816001600160a01b0316837f2f8788117e7eff1d82e926ec794901d17c78024a50270940304540a733656f0d60405160405180910390a45050565b610a6f82826106a5565b1561040f576000828152602081815260408083206001600160a01b0385168085529252808320805460ff1916905551339285917ff6391f5c32d9c69d2a47ea670b442974b53935d1edc7fd64eb21e047a839171b9190a45050565b610ad482826106a5565b61040f57610ae181610b23565b610aec836020610b35565b604051602001610afd929190610dd3565b60408051601f198184030181529082905262461bcd60e51b82526103fc91600401610e48565b60606103606001600160a01b03831660145b60606000610b44836002610e91565b610b4f906002610ea8565b67ffffffffffffffff811115610b6757610b67610ebb565b6040519080825280601f01601f191660200182016040528015610b91576020820181803683370190505b509050600360fc1b81600081518110610bac57610bac610ed1565b60200101906001600160f81b031916908160001a905350600f60fb1b81600181518110610bdb57610bdb610ed1565b60200101906001600160f81b031916908160001a9053506000610bff846002610e91565b610c0a906001610ea8565b90505b6001811115610c82576f181899199a1a9b1b9c1cb0b131b232b360811b85600f1660108110610c3e57610c3e610ed1565b1a60f81b828281518110610c5457610c54610ed1565b60200101906001600160f81b031916908160001a90535060049490941c93610c7b81610ee7565b9050610c0d565b508315610cd15760405162461bcd60e51b815260206004820181905260248201527f537472696e67733a20686578206c656e67746820696e73756666696369656e7460448201526064016103fc565b9392505050565b600060208284031215610cea57600080fd5b81356001600160e01b031981168114610cd157600080fd5b600060208284031215610d1457600080fd5b5035919050565b80356001600160a01b0381168114610d3257600080fd5b919050565b60008060408385031215610d4a57600080fd5b82359150610d5a60208401610d1b565b90509250929050565b60008060408385031215610d7657600080fd5b610d7f83610d1b565b946020939093013593505050565b600060208284031215610d9f57600080fd5b81518015158114610cd157600080fd5b60005b83811015610dca578181015183820152602001610db2565b50506000910152565b7f416363657373436f6e74726f6c3a206163636f756e7420000000000000000000815260008351610e0b816017850160208801610daf565b7001034b99036b4b9b9b4b733903937b6329607d1b6017918401918201528351610e3c816028840160208801610daf565b01602801949350505050565b6020815260008251806020840152610e67816040850160208701610daf565b601f01601f19169190910160400192915050565b634e487b7160e01b600052601160045260246000fd5b808202811582820484141761036057610360610e7b565b8082018082111561036057610360610e7b565b634e487b7160e01b600052604160045260246000fd5b634e487b7160e01b600052603260045260246000fd5b600081610ef657610ef6610e7b565b50600019019056fefe0e734c2495add73547265918fbd6f9cbabae1a8bc4e69b0e2a6a9986aa076ea2646970667358221220915b40475639fb4310e9f160c179e9a29aa011cb04f4986352a3518dfb7992ad64736f6c63430008130033",
  "devdoc": {
    "events": {
      "RoleAdminChanged(bytes32,bytes32,bytes32)": {
        "details": "Emitted when `newAdminRole` is set as ``role``'s admin role, replacing `previousAdminRole` `DEFAULT_ADMIN_ROLE` is the starting admin for all roles, despite {RoleAdminChanged} not being emitted signaling this. _Available since v3.1._"
      },
      "RoleGranted(bytes32,address,address)": {
        "details": "Emitted when `account` is granted `role`. `sender` is the account that originated the contract call, an admin role bearer except when using {AccessControl-_setupRole}."
      },
      "RoleRevoked(bytes32,address,address)": {
        "details": "Emitted when `account` is revoked `role`. `sender` is the account that originated the contract call:   - if using `revokeRole`, it is the admin role bearer   - if using `renounceRole`, it is the role bearer (i.e. `account`)"
      }
    },
    "kind": "dev",
    "methods": {
      "getRoleAdmin(bytes32)": {
        "details": "Returns the admin role that controls `role`. See {grantRole} and {revokeRole}. To change a role's admin, use {_setRoleAdmin}."
      },
      "grantRole(bytes32,address)": {
        "details": "Grants `role` to `account`. If `account` had not been already granted `role`, emits a {RoleGranted} event. Requirements: - the caller must have ``role``'s admin role. May emit a {RoleGranted} event."
      },
      "hasRole(bytes32,address)": {
        "details": "Returns `true` if `account` has been granted `role`."
      },
      "renounceRole(bytes32,address)": {
        "details": "Revokes `role` from the calling account. Roles are often managed via {grantRole} and {revokeRole}: this function's purpose is to provide a mechanism for accounts to lose their privileges if they are compromised (such as when a trusted device is misplaced). If the calling account had been revoked `role`, emits a {RoleRevoked} event. Requirements: - the caller must be `account`. May emit a {RoleRevoked} event."
      },
      "revokeRole(bytes32,address)": {
        "details": "Revokes `role` from `account`. If `account` had been granted `role`, emits a {RoleRevoked} event. Requirements: - the caller must have ``role``'s admin role. May emit a {RoleRevoked} event."
      },
      "supportsInterface(bytes4)": {
        "details": "See {IERC165-supportsInterface}."
      }
    },
    "version": 1
  },
  "userdoc": {
    "kind": "user",
    "methods": {},
    "version": 1
  },
  "storageLayout": {
    "storage": [
      {
        "astId": 24,
        "contract": "contracts/ETHBridge.sol:ETHBridge",
        "label": "_roles",
        "offset": 0,
        "slot": "0",
        "type": "t_mapping(t_bytes32,t_struct(RoleData)19_storage)"
      },
      {
        "astId": 2336,
        "contract": "contracts/ETHBridge.sol:ETHBridge",
        "label": "wFLRToken",
        "offset": 0,
        "slot": "1",
        "type": "t_contract(ERC20Token)2286"
      },
      {
        "astId": 2339,
        "contract": "contracts/ETHBridge.sol:ETHBridge",
        "label": "ERCToken",
        "offset": 0,
        "slot": "2",
        "type": "t_contract(ERC20Token)2286"
      }
    ],
    "types": {
      "t_address": {
        "encoding": "inplace",
        "label": "address",
        "numberOfBytes": "20"
      },
      "t_bool": {
        "encoding": "inplace",
        "label": "bool",
        "numberOfBytes": "1"
      },
      "t_bytes32": {
        "encoding": "inplace",
        "label": "bytes32",
        "numberOfBytes": "32"
      },
      "t_contract(ERC20Token)2286": {
        "encoding": "inplace",
        "label": "contract ERC20Token",
        "numberOfBytes": "20"
      },
      "t_mapping(t_address,t_bool)": {
        "encoding": "mapping",
        "key": "t_address",
        "label": "mapping(address => bool)",
        "numberOfBytes": "32",
        "value": "t_bool"
      },
      "t_mapping(t_bytes32,t_struct(RoleData)19_storage)": {
        "encoding": "mapping",
        "key": "t_bytes32",
        "label": "mapping(bytes32 => struct AccessControl.RoleData)",
        "numberOfBytes": "32",
        "value": "t_struct(RoleData)19_storage"
      },
      "t_struct(RoleData)19_storage": {
        "encoding": "inplace",
        "label": "struct AccessControl.RoleData",
        "members": [
          {
            "astId": 16,
            "contract": "contracts/ETHBridge.sol:ETHBridge",
            "label": "members",
            "offset": 0,
            "slot": "0",
            "type": "t_mapping(t_address,t_bool)"
          },
          {
            "astId": 18,
            "contract": "contracts/ETHBridge.sol:ETHBridge",
            "label": "adminRole",
            "offset": 0,
            "slot": "1",
            "type": "t_bytes32"
          }
        ],
        "numberOfBytes": "64"
      }
    }
  }
}